:100000000C942A000C943F000C943F000C943F0089
:100010000C943F000C943F000C943F000C943F0064
:100020000C943F000C943F000C943F000C943F0054
:100030000C943F000C943F000C943F000C943F0044
:100040000C943F000C943F000C943F000C943F0034
:100050000C943F0011241FBECFE5D8E0DEBFCDBF1A
:1000600010E0A0E6B0E0ECE9F3E002C005900D92EC
:10007000A437B107D9F70E946B010C94CC010C9402
:10008000000041E068E086E390E00E94BD018FE55A
:100090009AEE0197F1F700C0000040E068E086E3C7
:1000A00090E00E94BD0108958AB31ABA41E064E06D
:1000B00086E390E00E94BD0140E062E086E390E0CC
:1000C0000E94BD010E9441008AB3806F8ABB40E05C
:1000D00064E086E390E00E94BD01089542E068E09C
:1000E00086E390E00E94870142E062E086E390E0D0
:1000F0000E94870142E064E086E390E00E9487016D
:1001000041E060E189E390E00E947B0141E060E230
:1001100089E390E00E947B0141E060E489E390E0A4
:100120000E947B0141E060E889E390E00E947B014E
:100130000895CF93C82F0E9454000E9454006BB3BF
:100140006F708C2F807F682B89E390E00E94C9013B
:1001500040E062E086E390E00E94BD0140E064E0A0
:1001600086E390E00E94BD010E9441006BB320E154
:10017000C29FC00111246F70682B89E390E00E9438
:10018000C90140E062E086E390E00E94BD0140E0EA
:1001900064E086E390E00E94BD010E944100CF919F
:1001A000089581E00E94990008958FE39CE90197EA
:1001B000F1F700C000000E946E008FE295E7019702
:1001C000F1F700C000000E94D1000E94540082E0BC
:1001D0000E94990088E20E94990086E00E9499009E
:1001E00080E80E9499008FE00E9499000895CF93C3
:1001F000DF93C82FD62F813031F4603120F480E8AE
:10020000860F0E949900C23031F4D03120F480EC86
:100210008D0F0E949900DF91CF910895CF93C82F41
:1002200041E062E086E390E00E94BD0140E064E0CE
:1002300086E390E00E94BD016BB36F708C2F807FCE
:10024000682B89E390E00E94C9010E9441006BB3D2
:1002500020E1C29FC00111246F70682B89E390E0F8
:100260000E94C90141E062E086E390E00E94BD0186
:1002700040E064E086E390E00E94BD010E944100FE
:10028000CF9108950F931F93CF93DF938C01C0E01C
:10029000D0E018C021960F5F1F4F0E940E01C031A1
:1002A000D10529F460E082E00E94F7000BC0C03263
:1002B000D10541F40E94D10060E081E00E94F70086
:1002C000C0E0D0E0F80180818111E4CFDF91CF91CF
:1002D0001F910F9108950E94D5002FE788E391E0C8
:1002E000215080409040E1F700C0000080E690E09F
:1002F0000E944201FFCFFC01413021F48181682B33
:1003000061830895918160956923618308950F93B6
:100310001F93CF93DF938C01D62FC42F8EEF840FC2
:10032000823088F441E0C8010E947B01C33029F487
:10033000F8018281D82BD2831BC0F8018281D0952D
:10034000D823D28315C0423098F440E0C8010E94FF
:100350007B01C11106C0F8018281D095D823D283D8
:1003600007C0F8018281D82BD28380B78B7F80BFF2
:10037000DF91CF911F910F910895FC01413021F43D
:100380008281682B628308959281609569236283DC
:0C0390000895FC0162830895F894FFCFEB
:10039C004C4541524E20494E2044455054482D2D39
:0403AC003A290000EA
:00000001FF
