S01A00004C43445F4B45595041445F447269766572732E73726563DC
S11300000C942A000C943F000C943F000C943F0085
S11300100C943F000C943F000C943F000C943F0060
S11300200C943F000C943F000C943F000C943F0050
S11300300C943F000C943F000C943F000C943F0040
S11300400C943F000C943F000C943F000C943F0030
S11300500C943F0011241FBECFE5D8E0DEBFCDBF16
S113006010E0A0E6B0E0E8EAF5E002C005900D92E9
S1130070A438B107D9F70E9457020C94D2020C9409
S1130080000040E061E080E390E00E94790240E0FB
S113009062E080E390E00E94790240E064E080E363
S11300A090E00E94790240E068E080E390E00E94E2
S11300B0790241E060E180E390E00E94790241E04E
S11300C060E280E390E00E94790241E060E480E332
S11300D090E00E94790241E060E880E390E00E94B1
S11300E079026FEF80E390E00E94CF0208950F93AE
S11300F01F93CF93DF9300E010E085C0C0E6D0E00B
S1130100688141E080E390E00E94C3026A8141E09B
S113011080E390E00E94C3026C8141E080E390E0C0
S11301200E94C3026E8141E080E390E00E94C3021A
S1130130F801EE0FFF1FE05AFF4F608140E080E3BB
S113014090E00E94C302C0E0D0E057C0FE01EE0F71
S1130150FF1FE859FF4F608180E390E00E94BB02DB
S113016081114AC0FE01EE0FFF1FE859FF4F608165
S113017080E390E00E94BB028823A1F301301105C3
S1130180C1F024F40115110541F036C00230110507
S1130190E1F00330110529F12FC02097D1F1C130CE
S11301A0D105C9F1C230D105C1F1C330D10521F562
S11301B036C02097B1F1C130D105A9F1C230D105C3
S11301C0A1F1C330D105C1F432C0209791F1C130FF
S11301D0D10589F1C230D10581F1C330D10561F473
S11301E02EC0209771F1C130D10569F1C230D1051B
S11301F061F1C330D10559F12196C430D1050CF415
S1130200A5CF0F5F1F4F043011050CF477CF8EE498
S11302101FC087E31DC084E31BC081E319C08FE3C3
S113022017C088E315C085E313C082E311C080E3DF
S11302300FC089E30DC086E30BC083E309C08DE3DF
S113024007C08FE205C08AE203C08DE201C08BE2E1
S1130250DF91CF911F910F91089541E068E086E30B
S113026090E00E94C3028FE59AEE0197F1F700C077
S1130270000040E068E086E390E00E94C302089535
S11302808AB31ABA41E064E086E390E00E94C302B4
S113029040E062E086E390E00E94C3020E942D01E8
S11302A08AB3806F8ABB40E064E086E390E00E94FA
S11302B0C302089542E068E086E390E00E9485026C
S11302C042E062E086E390E00E94850242E064E05E
S11302D086E390E00E94850241E060E189E390E0DA
S11302E00E94790241E060E289E390E00E94790291
S11302F041E060E489E390E00E94790241E060E833
S113030089E390E00E9479020895CF93C82F0E9458
S113031040010E9440016BB36F708C2F807F682B6B
S113032089E390E00E94CF0240E062E086E390E03F
S11303300E94C30240E064E086E390E00E94C302AE
S11303400E942D016BB320E1C29FC00111246F7084
S1130350682B89E390E00E94CF0240E062E086E3EC
S113036090E00E94C30240E064E086E390E00E94D3
S1130370C3020E942D01CF91089581E00E9485015E
S113038008958FE39CE90197F1F700C000000E94F3
S11303905A018FE295E70197F1F700C000000E942F
S11303A0BD010E94400182E00E94850188E20E9412
S11303B0850186E00E94850180E80E9485018FE026
S11303C00E9485010895CF93DF93C82FD62F8130E3
S11303D031F4603120F480E8860F0E948501C23038
S11303E031F4D03120F480EC8D0F0E948501DF912F
S11303F0CF910895CF93C82F41E062E086E390E067
S11304000E94C30240E064E086E390E00E94C302DD
S11304106BB36F708C2F807F682B89E390E00E9410
S1130420CF020E942D016BB320E1C29FC0011124B1
S11304306F70682B89E390E00E94CF0241E062E094
S113044086E390E00E94C30240E064E086E390E02B
S11304500E94C3020E942D01CF9108950F931F9310
S1130460CF93DF938C01C0E0D0E018C021960F5FDA
S11304701F4F0E94FA01C031D10529F460E082E0E7
S11304800E94E3010BC0C032D10541F40E94BD01BA
S113049060E081E00E94E301C0E0D0E0F8018081E7
S11304A08111E4CFDF91CF911F910F9108950E94A4
S11304B0C1010E94BD0180E790E00E942E020E94CB
S11304C041002FEF80E792E0215080409040E1F717
S11304D000C000000E94BD010E9477008F3319F014
S11304E08E34D1F303C00E94BD01F6CF0E94FA01FD
S11304F0F3CFFC01413021F48181682B618308959D
S1130500918160956923618308950F931F93CF931D
S1130510DF938C01D62FC42F8EEF840F823088F4A2
S113052041E0C8010E947902C33029F4F8018281B4
S1130530D82BD2831BC0F8018281D095D823D283D3
S113054015C0423098F440E0C8010E947902C111FC
S113055006C0F8018281D095D823D28307C0F80160
S11305608281D82BD28380B78B7F80BFDF91CF91DC
S11305701F910F910895FC018081682311F081E09F
S1130580089580E00895FC01413021F48281682BB4
S11305906283089592816095692362830895FC01C2
S10B05A062830895F894FFCF73
S11305A81000200040008000010002000400080040
S11305B8526561647920746F20626520757365647F
S10705C8203A2900A8
S9030000FC
